{
  "_format": "hh-sol-artifact-1",
  "contractName": "GameWager",
  "sourceName": "contracts/GameWager.sol",
  "abi": [
    {
      "anonymous": false,
      "inputs": [
        {
          "indexed": true,
          "internalType": "address",
          "name": "previousOwner",
          "type": "address"
        },
        {
          "indexed": true,
          "internalType": "address",
          "name": "newOwner",
          "type": "address"
        }
      ],
      "name": "OwnershipTransferred",
      "type": "event"
    },
    {
      "anonymous": false,
      "inputs": [
        {
          "indexed": true,
          "internalType": "uint256",
          "name": "wagerId",
          "type": "uint256"
        },
        {
          "indexed": false,
          "internalType": "address",
          "name": "player2",
          "type": "address"
        }
      ],
      "name": "WagerAccepted",
      "type": "event"
    },
    {
      "anonymous": false,
      "inputs": [
        {
          "indexed": true,
          "internalType": "uint256",
          "name": "wagerId",
          "type": "uint256"
        }
      ],
      "name": "WagerCancelled",
      "type": "event"
    },
    {
      "anonymous": false,
      "inputs": [
        {
          "indexed": true,
          "internalType": "uint256",
          "name": "wagerId",
          "type": "uint256"
        },
        {
          "indexed": false,
          "internalType": "address",
          "name": "player1",
          "type": "address"
        },
        {
          "indexed": false,
          "internalType": "address",
          "name": "player2",
          "type": "address"
        },
        {
          "indexed": false,
          "internalType": "uint256",
          "name": "amount",
          "type": "uint256"
        }
      ],
      "name": "WagerCreated",
      "type": "event"
    },
    {
      "anonymous": false,
      "inputs": [
        {
          "indexed": true,
          "internalType": "uint256",
          "name": "wagerId",
          "type": "uint256"
        },
        {
          "indexed": false,
          "internalType": "address",
          "name": "winner",
          "type": "address"
        },
        {
          "indexed": false,
          "internalType": "uint256",
          "name": "amount",
          "type": "uint256"
        }
      ],
      "name": "WagerResolved",
      "type": "event"
    },
    {
      "inputs": [],
      "name": "TIMEOUT_DURATION",
      "outputs": [
        {
          "internalType": "uint256",
          "name": "",
          "type": "uint256"
        }
      ],
      "stateMutability": "view",
      "type": "function"
    },
    {
      "inputs": [
        {
          "internalType": "uint256",
          "name": "wagerId",
          "type": "uint256"
        }
      ],
      "name": "acceptWager",
      "outputs": [],
      "stateMutability": "payable",
      "type": "function"
    },
    {
      "inputs": [
        {
          "internalType": "uint256",
          "name": "wagerId",
          "type": "uint256"
        }
      ],
      "name": "cancelWager",
      "outputs": [],
      "stateMutability": "nonpayable",
      "type": "function"
    },
    {
      "inputs": [
        {
          "internalType": "address",
          "name": "opponent",
          "type": "address"
        },
        {
          "internalType": "bytes32",
          "name": "gameHash",
          "type": "bytes32"
        }
      ],
      "name": "createWager",
      "outputs": [],
      "stateMutability": "payable",
      "type": "function"
    },
    {
      "inputs": [],
      "name": "owner",
      "outputs": [
        {
          "internalType": "address",
          "name": "",
          "type": "address"
        }
      ],
      "stateMutability": "view",
      "type": "function"
    },
    {
      "inputs": [],
      "name": "renounceOwnership",
      "outputs": [],
      "stateMutability": "nonpayable",
      "type": "function"
    },
    {
      "inputs": [
        {
          "internalType": "uint256",
          "name": "wagerId",
          "type": "uint256"
        },
        {
          "internalType": "address",
          "name": "winner",
          "type": "address"
        }
      ],
      "name": "resolveWager",
      "outputs": [],
      "stateMutability": "nonpayable",
      "type": "function"
    },
    {
      "inputs": [
        {
          "internalType": "address",
          "name": "newOwner",
          "type": "address"
        }
      ],
      "name": "transferOwnership",
      "outputs": [],
      "stateMutability": "nonpayable",
      "type": "function"
    },
    {
      "inputs": [],
      "name": "wagerCount",
      "outputs": [
        {
          "internalType": "uint256",
          "name": "",
          "type": "uint256"
        }
      ],
      "stateMutability": "view",
      "type": "function"
    },
    {
      "inputs": [
        {
          "internalType": "uint256",
          "name": "",
          "type": "uint256"
        }
      ],
      "name": "wagers",
      "outputs": [
        {
          "internalType": "address",
          "name": "player1",
          "type": "address"
        },
        {
          "internalType": "address",
          "name": "player2",
          "type": "address"
        },
        {
          "internalType": "uint256",
          "name": "amount",
          "type": "uint256"
        },
        {
          "internalType": "bool",
          "name": "resolved",
          "type": "bool"
        },
        {
          "internalType": "bytes32",
          "name": "gameHash",
          "type": "bytes32"
        },
        {
          "internalType": "uint256",
          "name": "createdAt",
          "type": "uint256"
        }
      ],
      "stateMutability": "view",
      "type": "function"
    }
  ],
  "bytecode": "0x608060405234801561001057600080fd5b50600160008190555061003561002a61003a60201b60201c565b61004260201b60201c565b610108565b600033905090565b6000600160009054906101000a900473ffffffffffffffffffffffffffffffffffffffff16905081600160006101000a81548173ffffffffffffffffffffffffffffffffffffffff021916908373ffffffffffffffffffffffffffffffffffffffff1602179055508173ffffffffffffffffffffffffffffffffffffffff168173ffffffffffffffffffffffffffffffffffffffff167f8be0079c531659141344cd1fd0a4f28419497f9722a3daafe3b4186f6b6457e060405160405180910390a35050565b6118bd806101176000396000f3fe6080604052600436106100915760003560e01c80639c37d7ea116100595780639c37d7ea1461016c5780639dccd2a614610188578063c5126a9b146101b3578063eaf7ac9f146101cf578063f2fde38b146101fa57610091565b80633698373114610096578063375068e5146100bf5780634f067dc714610101578063715018a61461012a5780638da5cb5b14610141575b600080fd5b3480156100a257600080fd5b506100bd60048036038101906100b89190610f26565b610223565b005b3480156100cb57600080fd5b506100e660048036038101906100e19190610f66565b61052d565b6040516100f896959493929190610fe5565b60405180910390f35b34801561010d57600080fd5b5061012860048036038101906101239190610f66565b6105b6565b005b34801561013657600080fd5b5061013f6107d3565b005b34801561014d57600080fd5b506101566107e7565b6040516101639190611046565b60405180910390f35b61018660048036038101906101819190610f66565b610811565b005b34801561019457600080fd5b5061019d61099e565b6040516101aa9190611061565b60405180910390f35b6101cd60048036038101906101c891906110a8565b6109a4565b005b3480156101db57600080fd5b506101e4610c5e565b6040516101f19190611061565b60405180910390f35b34801561020657600080fd5b50610221600480360381019061021c91906110e8565b610c65565b005b61022b610ce8565b60006002600084815260200190815260200160002090508060030160009054906101000a900460ff1615610294576040517f08c379a000000000000000000000000000000000000000000000000000000000815260040161028b90611172565b60405180910390fd5b8060000160009054906101000a900473ffffffffffffffffffffffffffffffffffffffff1673ffffffffffffffffffffffffffffffffffffffff163373ffffffffffffffffffffffffffffffffffffffff16148061034157508060010160009054906101000a900473ffffffffffffffffffffffffffffffffffffffff1673ffffffffffffffffffffffffffffffffffffffff163373ffffffffffffffffffffffffffffffffffffffff16145b610380576040517f08c379a000000000000000000000000000000000000000000000000000000000815260040161037790611204565b60405180910390fd5b8060000160009054906101000a900473ffffffffffffffffffffffffffffffffffffffff1673ffffffffffffffffffffffffffffffffffffffff168273ffffffffffffffffffffffffffffffffffffffff16148061042d57508060010160009054906101000a900473ffffffffffffffffffffffffffffffffffffffff1673ffffffffffffffffffffffffffffffffffffffff168273ffffffffffffffffffffffffffffffffffffffff16145b61046c576040517f08c379a000000000000000000000000000000000000000000000000000000000815260040161046390611270565b60405180910390fd5b60018160030160006101000a81548160ff02191690831515021790555060006002826002015461049c91906112bf565b90508273ffffffffffffffffffffffffffffffffffffffff166108fc829081150290604051600060405180830381858888f193505050501580156104e4573d6000803e3d6000fd5b50837fafdb4f8a687246c27d7bc0a873dee68efc213ba947e47b00bffb0a0cbb6a3ac68483604051610517929190611301565b60405180910390a25050610529610d37565b5050565b60026020528060005260406000206000915090508060000160009054906101000a900473ffffffffffffffffffffffffffffffffffffffff16908060010160009054906101000a900473ffffffffffffffffffffffffffffffffffffffff16908060020154908060030160009054906101000a900460ff16908060040154908060050154905086565b6105be610ce8565b60006002600083815260200190815260200160002090508060030160009054906101000a900460ff1615610627576040517f08c379a000000000000000000000000000000000000000000000000000000000815260040161061e90611172565b60405180910390fd5b8060000160009054906101000a900473ffffffffffffffffffffffffffffffffffffffff1673ffffffffffffffffffffffffffffffffffffffff163373ffffffffffffffffffffffffffffffffffffffff16146106b9576040517f08c379a00000000000000000000000000000000000000000000000000000000081526004016106b090611376565b60405180910390fd5b6201518081600501546106cc9190611396565b42101561070e576040517f08c379a000000000000000000000000000000000000000000000000000000000815260040161070590611416565b60405180910390fd5b60018160030160006101000a81548160ff0219169083151502179055508060000160009054906101000a900473ffffffffffffffffffffffffffffffffffffffff1673ffffffffffffffffffffffffffffffffffffffff166108fc82600201549081150290604051600060405180830381858888f19350505050158015610799573d6000803e3d6000fd5b50817f64a718ebe173f0fec9fea978b0401922b9ec1a9f243fe952194cbdf204894a2360405160405180910390a2506107d0610d37565b50565b6107db610d41565b6107e56000610dbf565b565b6000600160009054906101000a900473ffffffffffffffffffffffffffffffffffffffff16905090565b610819610ce8565b60006002600083815260200190815260200160002090508060030160009054906101000a900460ff1615610882576040517f08c379a000000000000000000000000000000000000000000000000000000000815260040161087990611172565b60405180910390fd5b8060010160009054906101000a900473ffffffffffffffffffffffffffffffffffffffff1673ffffffffffffffffffffffffffffffffffffffff163373ffffffffffffffffffffffffffffffffffffffff1614610914576040517f08c379a000000000000000000000000000000000000000000000000000000000815260040161090b906114a8565b60405180910390fd5b8060020154341461095a576040517f08c379a000000000000000000000000000000000000000000000000000000000815260040161095190611514565b60405180910390fd5b817f33ab279870fef004a0f7d22a52a4e9606726d6fd587d74ea54c3d2d486e161a03360405161098a9190611046565b60405180910390a25061099b610d37565b50565b60035481565b600034116109e7576040517f08c379a00000000000000000000000000000000000000000000000000000000081526004016109de906115a6565b60405180910390fd5b600073ffffffffffffffffffffffffffffffffffffffff168273ffffffffffffffffffffffffffffffffffffffff1603610a56576040517f08c379a0000000000000000000000000000000000000000000000000000000008152600401610a4d90611612565b60405180910390fd5b3373ffffffffffffffffffffffffffffffffffffffff168273ffffffffffffffffffffffffffffffffffffffff1603610ac4576040517f08c379a0000000000000000000000000000000000000000000000000000000008152600401610abb9061167e565b60405180910390fd5b6040518060c001604052803373ffffffffffffffffffffffffffffffffffffffff1681526020018373ffffffffffffffffffffffffffffffffffffffff1681526020013481526020016000151581526020018281526020014281525060026000600354815260200190815260200160002060008201518160000160006101000a81548173ffffffffffffffffffffffffffffffffffffffff021916908373ffffffffffffffffffffffffffffffffffffffff16021790555060208201518160010160006101000a81548173ffffffffffffffffffffffffffffffffffffffff021916908373ffffffffffffffffffffffffffffffffffffffff1602179055506040820151816002015560608201518160030160006101000a81548160ff0219169083151502179055506080820151816004015560a082015181600501559050506003547fbd9beeea87624dc3eaa38175b573ce5b86e7bd5cbd70f72619bf05e1a6aa4b9d338434604051610c3a9392919061169e565b60405180910390a260036000815480929190610c55906116d5565b91905055505050565b6201518081565b610c6d610d41565b600073ffffffffffffffffffffffffffffffffffffffff168173ffffffffffffffffffffffffffffffffffffffff1603610cdc576040517f08c379a0000000000000000000000000000000000000000000000000000000008152600401610cd39061178f565b60405180910390fd5b610ce581610dbf565b50565b600260005403610d2d576040517f08c379a0000000000000000000000000000000000000000000000000000000008152600401610d24906117fb565b60405180910390fd5b6002600081905550565b6001600081905550565b610d49610e85565b73ffffffffffffffffffffffffffffffffffffffff16610d676107e7565b73ffffffffffffffffffffffffffffffffffffffff1614610dbd576040517f08c379a0000000000000000000000000000000000000000000000000000000008152600401610db490611867565b60405180910390fd5b565b6000600160009054906101000a900473ffffffffffffffffffffffffffffffffffffffff16905081600160006101000a81548173ffffffffffffffffffffffffffffffffffffffff021916908373ffffffffffffffffffffffffffffffffffffffff1602179055508173ffffffffffffffffffffffffffffffffffffffff168173ffffffffffffffffffffffffffffffffffffffff167f8be0079c531659141344cd1fd0a4f28419497f9722a3daafe3b4186f6b6457e060405160405180910390a35050565b600033905090565b600080fd5b6000819050919050565b610ea581610e92565b8114610eb057600080fd5b50565b600081359050610ec281610e9c565b92915050565b600073ffffffffffffffffffffffffffffffffffffffff82169050919050565b6000610ef382610ec8565b9050919050565b610f0381610ee8565b8114610f0e57600080fd5b50565b600081359050610f2081610efa565b92915050565b60008060408385031215610f3d57610f3c610e8d565b5b6000610f4b85828601610eb3565b9250506020610f5c85828601610f11565b9150509250929050565b600060208284031215610f7c57610f7b610e8d565b5b6000610f8a84828501610eb3565b91505092915050565b610f9c81610ee8565b82525050565b610fab81610e92565b82525050565b60008115159050919050565b610fc681610fb1565b82525050565b6000819050919050565b610fdf81610fcc565b82525050565b600060c082019050610ffa6000830189610f93565b6110076020830188610f93565b6110146040830187610fa2565b6110216060830186610fbd565b61102e6080830185610fd6565b61103b60a0830184610fa2565b979650505050505050565b600060208201905061105b6000830184610f93565b92915050565b60006020820190506110766000830184610fa2565b92915050565b61108581610fcc565b811461109057600080fd5b50565b6000813590506110a28161107c565b92915050565b600080604083850312156110bf576110be610e8d565b5b60006110cd85828601610f11565b92505060206110de85828601611093565b9150509250929050565b6000602082840312156110fe576110fd610e8d565b5b600061110c84828501610f11565b91505092915050565b600082825260208201905092915050565b7f576167657220616c7265616479207265736f6c76656400000000000000000000600082015250565b600061115c601683611115565b915061116782611126565b602082019050919050565b6000602082019050818103600083015261118b8161114f565b9050919050565b7f4f6e6c79207061727469636970616e74732063616e207265736f6c766520776160008201527f6765720000000000000000000000000000000000000000000000000000000000602082015250565b60006111ee602383611115565b91506111f982611192565b604082019050919050565b6000602082019050818103600083015261121d816111e1565b9050919050565b7f57696e6e6572206d7573742062652061207061727469636970616e7400000000600082015250565b600061125a601c83611115565b915061126582611224565b602082019050919050565b600060208201905081810360008301526112898161124d565b9050919050565b7f4e487b7100000000000000000000000000000000000000000000000000000000600052601160045260246000fd5b60006112ca82610e92565b91506112d583610e92565b92508282026112e381610e92565b915082820484148315176112fa576112f9611290565b5b5092915050565b60006040820190506113166000830185610f93565b6113236020830184610fa2565b9392505050565b7f4f6e6c792077616765722063726561746f722063616e2063616e63656c000000600082015250565b6000611360601d83611115565b915061136b8261132a565b602082019050919050565b6000602082019050818103600083015261138f81611353565b9050919050565b60006113a182610e92565b91506113ac83610e92565b92508282019050808211156113c4576113c3611290565b5b92915050565b7f43616e6e6f742063616e63656c206265666f72652074696d656f757400000000600082015250565b6000611400601c83611115565b915061140b826113ca565b602082019050919050565b6000602082019050818103600083015261142f816113f3565b9050919050565b7f4f6e6c792064657369676e6174656420706c617965722063616e20616363657060008201527f7400000000000000000000000000000000000000000000000000000000000000602082015250565b6000611492602183611115565b915061149d82611436565b604082019050919050565b600060208201905081810360008301526114c181611485565b9050919050565b7f4d757374206d6174636820776167657220616d6f756e74000000000000000000600082015250565b60006114fe601783611115565b9150611509826114c8565b602082019050919050565b6000602082019050818103600083015261152d816114f1565b9050919050565b7f576167657220616d6f756e74206d75737420626520677265617465722074686160008201527f6e207a65726f0000000000000000000000000000000000000000000000000000602082015250565b6000611590602683611115565b915061159b82611534565b604082019050919050565b600060208201905081810360008301526115bf81611583565b9050919050565b7f496e76616c6964206f70706f6e656e7420616464726573730000000000000000600082015250565b60006115fc601883611115565b9150611607826115c6565b602082019050919050565b6000602082019050818103600083015261162b816115ef565b9050919050565b7f43616e6e6f7420776167657220616761696e737420796f757273656c66000000600082015250565b6000611668601d83611115565b915061167382611632565b602082019050919050565b600060208201905081810360008301526116978161165b565b9050919050565b60006060820190506116b36000830186610f93565b6116c06020830185610f93565b6116cd6040830184610fa2565b949350505050565b60006116e082610e92565b91507fffffffffffffffffffffffffffffffffffffffffffffffffffffffffffffffff820361171257611711611290565b5b600182019050919050565b7f4f776e61626c653a206e6577206f776e657220697320746865207a65726f206160008201527f6464726573730000000000000000000000000000000000000000000000000000602082015250565b6000611779602683611115565b91506117848261171d565b604082019050919050565b600060208201905081810360008301526117a88161176c565b9050919050565b7f5265656e7472616e637947756172643a207265656e7472616e742063616c6c00600082015250565b60006117e5601f83611115565b91506117f0826117af565b602082019050919050565b60006020820190508181036000830152611814816117d8565b9050919050565b7f4f776e61626c653a2063616c6c6572206973206e6f7420746865206f776e6572600082015250565b6000611851602083611115565b915061185c8261181b565b602082019050919050565b6000602082019050818103600083015261188081611844565b905091905056fea2646970667358221220ba956e4b0bf3a68032d45ad0dd04c9417de947c97701cada1c339eb68bac551964736f6c63430008130033",
  "linkReferences": {},
  "deployedLinkReferences": {}
}