{
  "_format": "hh-sol-artifact-1",
  "contractName": "GameProofVerifier",
  "sourceName": "contracts/GameProofVerifier.sol",
  "abi": [
    {
      "anonymous": false,
      "inputs": [
        {
          "indexed": true,
          "internalType": "address",
          "name": "previousOwner",
          "type": "address"
        },
        {
          "indexed": true,
          "internalType": "address",
          "name": "newOwner",
          "type": "address"
        }
      ],
      "name": "OwnershipTransferred",
      "type": "event"
    },
    {
      "anonymous": false,
      "inputs": [
        {
          "indexed": true,
          "internalType": "address",
          "name": "player",
          "type": "address"
        },
        {
          "indexed": false,
          "internalType": "uint256",
          "name": "score",
          "type": "uint256"
        },
        {
          "indexed": false,
          "internalType": "bytes32",
          "name": "proofHash",
          "type": "bytes32"
        }
      ],
      "name": "ProofSubmitted",
      "type": "event"
    },
    {
      "anonymous": false,
      "inputs": [
        {
          "indexed": true,
          "internalType": "address",
          "name": "player",
          "type": "address"
        },
        {
          "indexed": false,
          "internalType": "uint256",
          "name": "score",
          "type": "uint256"
        },
        {
          "indexed": false,
          "internalType": "bytes32",
          "name": "proofHash",
          "type": "bytes32"
        }
      ],
      "name": "ProofVerified",
      "type": "event"
    },
    {
      "inputs": [
        {
          "internalType": "address",
          "name": "player",
          "type": "address"
        }
      ],
      "name": "getPlayerScore",
      "outputs": [
        {
          "internalType": "uint256",
          "name": "",
          "type": "uint256"
        }
      ],
      "stateMutability": "view",
      "type": "function"
    },
    {
      "inputs": [],
      "name": "owner",
      "outputs": [
        {
          "internalType": "address",
          "name": "",
          "type": "address"
        }
      ],
      "stateMutability": "view",
      "type": "function"
    },
    {
      "inputs": [
        {
          "internalType": "address",
          "name": "",
          "type": "address"
        }
      ],
      "name": "playerScores",
      "outputs": [
        {
          "internalType": "uint256",
          "name": "",
          "type": "uint256"
        }
      ],
      "stateMutability": "view",
      "type": "function"
    },
    {
      "inputs": [
        {
          "internalType": "bytes32",
          "name": "",
          "type": "bytes32"
        }
      ],
      "name": "proofs",
      "outputs": [
        {
          "internalType": "uint256",
          "name": "playerScore",
          "type": "uint256"
        },
        {
          "internalType": "uint256",
          "name": "verificationThreshold",
          "type": "uint256"
        },
        {
          "internalType": "bytes32",
          "name": "proofHash",
          "type": "bytes32"
        },
        {
          "internalType": "uint256",
          "name": "timestamp",
          "type": "uint256"
        },
        {
          "internalType": "address",
          "name": "player",
          "type": "address"
        }
      ],
      "stateMutability": "view",
      "type": "function"
    },
    {
      "inputs": [],
      "name": "renounceOwnership",
      "outputs": [],
      "stateMutability": "nonpayable",
      "type": "function"
    },
    {
      "inputs": [
        {
          "internalType": "uint256",
          "name": "score",
          "type": "uint256"
        },
        {
          "internalType": "uint256",
          "name": "threshold",
          "type": "uint256"
        },
        {
          "internalType": "bytes32",
          "name": "proofHash",
          "type": "bytes32"
        }
      ],
      "name": "submitProof",
      "outputs": [],
      "stateMutability": "nonpayable",
      "type": "function"
    },
    {
      "inputs": [
        {
          "internalType": "address",
          "name": "newOwner",
          "type": "address"
        }
      ],
      "name": "transferOwnership",
      "outputs": [],
      "stateMutability": "nonpayable",
      "type": "function"
    },
    {
      "inputs": [
        {
          "internalType": "address",
          "name": "player",
          "type": "address"
        },
        {
          "internalType": "uint256",
          "name": "newScore",
          "type": "uint256"
        }
      ],
      "name": "updatePlayerScore",
      "outputs": [],
      "stateMutability": "nonpayable",
      "type": "function"
    },
    {
      "inputs": [
        {
          "internalType": "bytes32",
          "name": "proofId",
          "type": "bytes32"
        }
      ],
      "name": "verifyGameStats",
      "outputs": [
        {
          "internalType": "bool",
          "name": "",
          "type": "bool"
        }
      ],
      "stateMutability": "view",
      "type": "function"
    }
  ],
  "bytecode": "0x608060405234801561001057600080fd5b5061002d61002261003260201b60201c565b61003a60201b60201c565b6100fe565b600033905090565b60008060009054906101000a900473ffffffffffffffffffffffffffffffffffffffff169050816000806101000a81548173ffffffffffffffffffffffffffffffffffffffff021916908373ffffffffffffffffffffffffffffffffffffffff1602179055508173ffffffffffffffffffffffffffffffffffffffff168173ffffffffffffffffffffffffffffffffffffffff167f8be0079c531659141344cd1fd0a4f28419497f9722a3daafe3b4186f6b6457e060405160405180910390a35050565b610f2c8061010d6000396000f3fe608060405234801561001057600080fd5b50600436106100935760003560e01c80638598be6a116100665780638598be6a146101365780638da5cb5b1461015257806393f5b24114610170578063e085c5391461018c578063f2fde38b146101bc57610093565b80633f98267114610098578063444d95b0146100c857806362550ae1146100fc578063715018a61461012c575b600080fd5b6100b260048036038101906100ad9190610892565b6101d8565b6040516100bf91906108da565b60405180910390f35b6100e260048036038101906100dd9190610892565b610300565b6040516100f395949392919061095e565b60405180910390f35b610116600480360381019061011191906109dd565b610356565b6040516101239190610a0a565b60405180910390f35b61013461036e565b005b610150600480360381019061014b9190610a51565b610382565b005b61015a610559565b6040516101679190610aa4565b60405180910390f35b61018a60048036038101906101859190610abf565b610582565b005b6101a660048036038101906101a191906109dd565b610641565b6040516101b39190610a0a565b60405180910390f35b6101d660048036038101906101d191906109dd565b61068a565b005b600080600160008481526020019081526020016000206040518060a0016040529081600082015481526020016001820154815260200160028201548152602001600382015481526020016004820160009054906101000a900473ffffffffffffffffffffffffffffffffffffffff1673ffffffffffffffffffffffffffffffffffffffff1673ffffffffffffffffffffffffffffffffffffffff16815250509050600073ffffffffffffffffffffffffffffffffffffffff16816080015173ffffffffffffffffffffffffffffffffffffffff16036102ec576040517f08c379a00000000000000000000000000000000000000000000000000000000081526004016102e390610b5c565b60405180910390fd5b806020015181600001511015915050919050565b60016020528060005260406000206000915090508060000154908060010154908060020154908060030154908060040160009054906101000a900473ffffffffffffffffffffffffffffffffffffffff16905085565b60026020528060005260406000206000915090505481565b61037661070d565b610380600061078b565b565b600083116103c5576040517f08c379a00000000000000000000000000000000000000000000000000000000081526004016103bc90610bc8565b60405180910390fd5b60008211610408576040517f08c379a00000000000000000000000000000000000000000000000000000000081526004016103ff90610c5a565b60405180910390fd5b60006040518060a001604052808581526020018481526020018381526020014281526020013373ffffffffffffffffffffffffffffffffffffffff16815250905060003385858542604051602001610464959493929190610d04565b60405160208183030381529060405280519060200120905081600160008381526020019081526020016000206000820151816000015560208201518160010155604082015181600201556060820151816003015560808201518160040160006101000a81548173ffffffffffffffffffffffffffffffffffffffff021916908373ffffffffffffffffffffffffffffffffffffffff1602179055509050503373ffffffffffffffffffffffffffffffffffffffff167f8bcdab581a6176f792fa96b0c57d32273bcd8621b0548c15a9c6379dc246e26c868560405161054a929190610d63565b60405180910390a25050505050565b60008060009054906101000a900473ffffffffffffffffffffffffffffffffffffffff16905090565b61058a61070d565b600073ffffffffffffffffffffffffffffffffffffffff168273ffffffffffffffffffffffffffffffffffffffff16036105f9576040517f08c379a00000000000000000000000000000000000000000000000000000000081526004016105f090610dd8565b60405180910390fd5b80600260008473ffffffffffffffffffffffffffffffffffffffff1673ffffffffffffffffffffffffffffffffffffffff168152602001908152602001600020819055505050565b6000600260008373ffffffffffffffffffffffffffffffffffffffff1673ffffffffffffffffffffffffffffffffffffffff168152602001908152602001600020549050919050565b61069261070d565b600073ffffffffffffffffffffffffffffffffffffffff168173ffffffffffffffffffffffffffffffffffffffff1603610701576040517f08c379a00000000000000000000000000000000000000000000000000000000081526004016106f890610e6a565b60405180910390fd5b61070a8161078b565b50565b61071561084f565b73ffffffffffffffffffffffffffffffffffffffff16610733610559565b73ffffffffffffffffffffffffffffffffffffffff1614610789576040517f08c379a000000000000000000000000000000000000000000000000000000000815260040161078090610ed6565b60405180910390fd5b565b60008060009054906101000a900473ffffffffffffffffffffffffffffffffffffffff169050816000806101000a81548173ffffffffffffffffffffffffffffffffffffffff021916908373ffffffffffffffffffffffffffffffffffffffff1602179055508173ffffffffffffffffffffffffffffffffffffffff168173ffffffffffffffffffffffffffffffffffffffff167f8be0079c531659141344cd1fd0a4f28419497f9722a3daafe3b4186f6b6457e060405160405180910390a35050565b600033905090565b600080fd5b6000819050919050565b61086f8161085c565b811461087a57600080fd5b50565b60008135905061088c81610866565b92915050565b6000602082840312156108a8576108a7610857565b5b60006108b68482850161087d565b91505092915050565b60008115159050919050565b6108d4816108bf565b82525050565b60006020820190506108ef60008301846108cb565b92915050565b6000819050919050565b610908816108f5565b82525050565b6109178161085c565b82525050565b600073ffffffffffffffffffffffffffffffffffffffff82169050919050565b60006109488261091d565b9050919050565b6109588161093d565b82525050565b600060a08201905061097360008301886108ff565b61098060208301876108ff565b61098d604083018661090e565b61099a60608301856108ff565b6109a7608083018461094f565b9695505050505050565b6109ba8161093d565b81146109c557600080fd5b50565b6000813590506109d7816109b1565b92915050565b6000602082840312156109f3576109f2610857565b5b6000610a01848285016109c8565b91505092915050565b6000602082019050610a1f60008301846108ff565b92915050565b610a2e816108f5565b8114610a3957600080fd5b50565b600081359050610a4b81610a25565b92915050565b600080600060608486031215610a6a57610a69610857565b5b6000610a7886828701610a3c565b9350506020610a8986828701610a3c565b9250506040610a9a8682870161087d565b9150509250925092565b6000602082019050610ab9600083018461094f565b92915050565b60008060408385031215610ad657610ad5610857565b5b6000610ae4858286016109c8565b9250506020610af585828601610a3c565b9150509250929050565b600082825260208201905092915050565b7f50726f6f6620646f6573206e6f74206578697374000000000000000000000000600082015250565b6000610b46601483610aff565b9150610b5182610b10565b602082019050919050565b60006020820190508181036000830152610b7581610b39565b9050919050565b7f53636f7265206d7573742062652067726561746572207468616e207a65726f00600082015250565b6000610bb2601f83610aff565b9150610bbd82610b7c565b602082019050919050565b60006020820190508181036000830152610be181610ba5565b9050919050565b7f5468726573686f6c64206d7573742062652067726561746572207468616e207a60008201527f65726f0000000000000000000000000000000000000000000000000000000000602082015250565b6000610c44602383610aff565b9150610c4f82610be8565b604082019050919050565b60006020820190508181036000830152610c7381610c37565b9050919050565b60008160601b9050919050565b6000610c9282610c7a565b9050919050565b6000610ca482610c87565b9050919050565b610cbc610cb78261093d565b610c99565b82525050565b6000819050919050565b610cdd610cd8826108f5565b610cc2565b82525050565b6000819050919050565b610cfe610cf98261085c565b610ce3565b82525050565b6000610d108288610cab565b601482019150610d208287610ccc565b602082019150610d308286610ccc565b602082019150610d408285610ced565b602082019150610d508284610ccc565b6020820191508190509695505050505050565b6000604082019050610d7860008301856108ff565b610d85602083018461090e565b9392505050565b7f496e76616c696420706c61796572206164647265737300000000000000000000600082015250565b6000610dc2601683610aff565b9150610dcd82610d8c565b602082019050919050565b60006020820190508181036000830152610df181610db5565b9050919050565b7f4f776e61626c653a206e6577206f776e657220697320746865207a65726f206160008201527f6464726573730000000000000000000000000000000000000000000000000000602082015250565b6000610e54602683610aff565b9150610e5f82610df8565b604082019050919050565b60006020820190508181036000830152610e8381610e47565b9050919050565b7f4f776e61626c653a2063616c6c6572206973206e6f7420746865206f776e6572600082015250565b6000610ec0602083610aff565b9150610ecb82610e8a565b602082019050919050565b60006020820190508181036000830152610eef81610eb3565b905091905056fea2646970667358221220b71587f2e253cfe8356f5f419d217e43901da2c2c0eee8ea8ae2cc68d7721b3764736f6c63430008130033",
  "linkReferences": {},
  "deployedLinkReferences": {}
}